:100000000C9483030C94B4030C94B4030C94B403C5
:100010000C94B4030C94B4030C94B4030C94B40384
:100020000C94B4030C94B4030C94B4030C94B40374
:100030000C94B4030C94B4030C94B4030C94B40364
:100040000C94B4030C947A180C94B4030C94B40379
:100050000C94B4030C94B4030C94B4030C9433BF09
:100060000C94B4030C9459C00C942FC00C94B4039A
:100070000C94B4030C94B4030C94B4030C94B40324
:100080000C9488CA0C94B4030C94B4030C94B40379
:100090000C9405C00C94DBBF0C94B4030C94B2C355
:1000A0000C94B4030C94B4030C945BC90C94B40387
:1000B0000C94B4030C94B4030C94B4030C94B403E4
:1000C0000C94B4030C94B4030C94B4030C94B1BF1B
:1000D0000C9487BF0C94B4030C94B4030C94B40335
:1000E0000C94B403036EDB363D9A9999993DABAA03
:1000F000AA2A3E000000803F084AD73B3BCE016E53
:1001000084BCBFFDC12F3D6C74319ABD56833DDA6E
:100110003D00C77F11BED9E4BB4C3E916BAAAABE7D
:10012000000000803F072C7AA5BA6CC590DA3B939B
:1001300065FC8BBC53F810FD3C5692834DBD879DEA
:100140003AB63DCBC9BF5BBE73DA0FC93F05A84CB9
:10015000CDB2D44EB93836A9020C50B99186880870
:100160003CA6AAAA2ABE000000803F0664EC1B3C05
:1001700004BC163E3BE5B93CC93C37C29E5A3D66BD
:100180000498083EEA69AAAA3E000000803F07637F
:100190004236B79BD8A71A39685618AEBAAB558CF9
:1001A0001D3CB7CC5763BD6DEDFD753EF617723142
:1001B000BF000000803F08000000BE922449123EAC
:1001C000ABAAAA2ABECDCCCC4C3E00000080BEAB70
:1001D000AAAAAA3E00000000BF000000803F000065
:1001E000000000084178D3BB4387D1133D190E3C72
:1001F000C3BD4282AD2B3E68EC8276BED98FE1A9A9
:100200003E4C80EFFFBE01C4FF7F3F0000000000B6
:100210000C94E9780C94D5AF0C94C1A40C94B3A4BD
:100220000C9494570C94AABA0C940C570C949A56AC
:100230000C9448060C94415D0C94EB560C9414C33A
:100240000C94AFA40C94E4730C94D0560C94110746
:100250000C9425570C9417A70C941CBB0C94BDA4AC
:100260000C94B2BA0C9473580C949CA40C94BFA335
:100270000C94FB060C9447540C9403BB0C94FC7830
:100280000C94DE5C0C9459570C94EFBA0C940375E3
:100290000C9494A40C94CBA40C9410790C94940911
:1002A0000C94D45C0C944C110C9494520C9444BB5C
:1002B0000C94A6090C943F750C94325D0C941507B0
:1002C0000C9493730C941A740C94BF530C941415DF
:1002D0000C94950A0C9412BB0C9442F50C94357452
:1002E0000C94C95C0C94E4520C9492740C94EEE758
:1002F0000C9424A50C94DEA40C94035C0C94E5BA35
:100300000C9407070C94CB5D0C94F25C0C94497927
:100310000C9411160C94200B0C9426A70C943ABB49
:100320000C940F070C941B5D0C94E95B0C94917872
:100330000C94CFA40C9476750C9490A40C946C152A
:100340000C94F3060C94D4060C9473540C949258A9
:100350000C94DB0A0C9447A50C9413070C94AE7311
:100360000C94315C0C946B740C946C520C9466C3BA
:100370000C94A5120C94C1BA0C94765D0C946DA7E4
:100380000C94DDBA0C9439A70C94EDA60C94EEA550
:100390000C948AA40C9498A40C9484AF0C94E10659
:1003A0000C9419540C94155C0C94F9BA0C944C539D
:1003B0000C9423840C94BA570C94A0140C949FA40E
:1003C0000C94CE090C94D5BA0C9444520C94C97375
:1003D0000C94A5A40C9483790C9426BB0C94A1A531
:1003E0000C94BF150C94935C0C9475060C94A75751
:1003F0000C9412780C9428180C94C5A40C9486AF15
:100400000C94CAA40C94EEA60C9416A70C948157D5
:100410000C94BA090C94CBBA0C9422120C942011AF
:100420000C944E570C94DA780C94A9A40C943B5776
:100430000C94F2060C9450740C94CD740C9455A545
:100440000C94E85C0C9440A70C94B7BA0C94345309
:100450000C94AE780C940C530C94BEA30C9433A55E
:100460000C94FF730C94B4540C94FD0A0C942DD38B
:100470000C949C530C946E570C9474530C94ED177D
:100480000C9478770C94BC790C94B7A40C94B75660
:100490000C94BC520C9482AF0C94ED530C9430BB72
:1004A0004E414E494E495459494E46CDCCCC3D0A59
:1004B000D7233C17B7D13877CC2B329595E6241F3C
:1004C000B14F0A000020410000C84200401C4620F5
:1004D000BCBE4CCA1B0E5AAEC59D7400407A10F3C8
:1004E0005A00A0724E18090010A5D4E80000E87662
:1004F00048170000E40B54020000CA9A3B000000B9
:10050000E1F505000080969800000040420F0000D1
:1005100000A08601000000102700000000E8030092
:100520000000006400000000000A0000000000015C
:1005300000000000002C76D888DC674F0823DFC15C
:10054000DFAE59E1B1B796E5E3E453C63AE6519917
:100550007696E8E6C28426EB898C9B62ED407C6F40
:10056000FCEFBC9C9F40F2BAA56FA5F490055A2AF7
:10057000F75C936B6CF9676DC11BFCE0E40D47FE03
:10058000F520E6B500D0ED902E03009435770500F8
:1005900080841E080000204E0A000000C80C33337F
:1005A00033330F986E12831141EF8D2114893BE68E
:1005B0005516CFFEE6DB18D1844B381BF77C1D9017
:1005C0001DA4BBE424203284725E228100C9F12480
:1005D000ECA1E53D2700002100240027002A002D82
:1005E000003000330001010000040107010A01008E
:1005F000002200250028002B002E003100340002CC
:10060000010000050108010B011F1C1F1E1F1E1FFA
:100610001F1E1F1E1F000020002300260029002C83
:10062000002F00320000010000030106010901054E
:10063000050505070508080808020202020A0A085B
:100640000804040404010101010101010103030381
:100650000303030303040707070C0C0C0C0C0C0C1E
:100660000C0202020206060606060606060B0B0B25
:100670000B0B0B0B0B010210202008081020401060
:100680002040800201020108040201010204081056
:100690002040808040201008040201800402018074
:1006A000402010080402010804020101020408109D
:1006B000204080010204081020408000000A0B0244
:1006C000090C0D0E080703040100000000000000E3
:1006D000000000000000000000000000000000001A
:1006E00000000000000000121110000000000000D7
:1006F00000000000000000000000000000000000FA
:1007000000002DD3EEE711241FBECFEFD1E2DEBFF4
:10071000CDBF00E00CBF17E0A0E0B2E0E6EAF5EFE5
:1007200001E00BBF02C007900D92AA31B107D9F7C3
:1007300024E1AAE1B7E001C01D92A838B207E1F7B1
:1007400013E0C2E8D3E000E006C021970109802F42
:10075000FE010E94D4F4C138D10780E00807A9F750
:100760000E944FD50C94C1FA0C9400008091700A3D
:1007700081111092700A08958091710A811110926E
:10078000710A08958091E30A843051F41092E30ACB
:1007900010928C0A10928D0A10928E0A10928F0A73
:1007A0008091E30A823059F481E08093E30A109249
:1007B0008C0A10928D0A10928E0A10928F0A089558
:1007C000CF92DF92EF92FF92F8944091AC0A509151
:1007D000AD0A6091AE0A7091AF0A8091C00A909103
:1007E000C10AA091C20AB091C30A7894525061091B
:1007F000710920E034E06A017B01E3E0DE22EE24AF
:10080000FF24CD28CE28CF2839F04F5F5F4F6F4FA0
:100810007F4F2150310979F79250A109B10920E0A9
:1008200034E06C017D01E3E0DE22EE24FF24CD28DC
:10083000CE28CF2831F00196A11DB11D21503109DC
:1008400081F7F8944093AC0A5093AD0A6093AE0AD6
:100850007093AF0A1092A80A1092A90A1092AA0ADD
:100860001092AB0A8093C00A9093C10AA093C20A67
:10087000B093C30A1092BC0A1092BD0A1092BE0A2D
:100880001092BF0A7894FF90EF90DF90CF90089578
:10089000CF92DF92EF92FF920F931F938B019C01F7
:1008A00080E090E0A0E0B0E4081719072A073B07B2
:1008B00040F4F2E0B695A79597958795FA95D1F70C
:1008C000F3CF40E050E0BA010097A105B10549F12E
:1008D0006A017B01C80ED91EEA1EFB1E0C151D0500
:1008E0002E053F0590F0041B150B260B370B081B3C
:1008F000190B2A0B3B0B6C017D01CC0CDD1CEE1C93
:10090000FF1C4C0D5D1D6E1D7F1D769567955795DF
:100910004795F2E0B695A79597958795FA95D1F703
:10092000D3CFCB01BA011F910F91FF90EF90DF90D1
:10093000CF90089580911F0D9091200D82309105E8
:1009400048F08A30910510F00C9721F41092200D98
:1009500010921F0D08951092010A1092000AF89447
:100960008091150B882319F082E68093150B8091F6
:10097000140B882319F082E68093140B7894089561
:10098000F8948091140B882339F08091140B8236EF
:1009900019F082E68093140B78940895F89480916E
:1009A000150B882339F08091150B823619F082E6F9
:1009B0008093150B789408954F925F926F927F9277
:1009C0008F929F92AF92BF92CF92DF92EF92FF925F
:1009D0000F931F934B015C0129013A01670160915C
:1009E000F80A7091F90A072E000C880B990B0E94E7
:1009F00038EBA80196010E948AF218160CF466C022
:100A00006091F60A7091F70A072E000C880B990B7B
:100A10000E9438EBA80196010E9431EB87FD59C076
:100A20006091B7027091B802072E000C880B990BE9
:100A30000E9438EBA30192010E948AF218160CF46E
:100A40004BC06091B9027091BA02072E000C880B5E
:100A5000990B0E9438EBA30192010E9431EB87FDB4
:100A60003BC06091DA037091DB03072E000C880B0A
:100A7000990B0E9438EB9B01AC01C501B4010E94A7
:100A800031EB87FD29C06091DC037091DD03072EF7
:100A9000000C880B990B0E9438EB9B01AC01C5013F
:100AA000B4010E948AF21816BCF090E080E01F9119
:100AB0000F91FF90EF90DF90CF90BF90AF909F90FD
:100AC0008F907F906F905F904F9008958FE090E0AF
:100AD000EECF80E190E0EBCF84E190E0E8CF8F9221
:100AE0009F92AF92BF92CF92DF92EF92FF9280904F
:100AF000AE029090AF02A090B002B090B10220E0A0
:100B000030E040E751E460919D0770919E0780912D
:100B10009F079091A0070E9448F06B017C0120E0A4
:100B200030E040E753E4C501B4010E9448F09B0166
:100B3000AC01C701B6010E9497EB6B017C0120E07C
:100B400030E040E051E40E9431EB87FF05C0C12C4A
:100B5000D12CE12C81E4F82EC701B601FF90EF9073
:100B6000DF90CF90BF90AF909F908F9008958F921D
:100B70009F92AF92BF92CF92DF92EF92FF928090BE
:100B8000D1039090D203A090D303B090D40320E07F
:100B900030E040E751E46091240270912502809199
:100BA0002602909127020E9448F06B017C0120E010
:100BB00030E040E753E4C501B4010E9448F09B01D6
:100BC000AC01C701B6010E9497EB6B017C0120E0EC
:100BD00030E040E051E40E9431EB87FF05C0C12CBA
:100BE000D12CE12C81E4F82EC701B601FF90EF90E3
:100BF000DF90CF90BF90AF909F908F90089580919D
:100C0000C90A813021F010929C0710929B0781E065
:100C100020919B0730919C07121613060CF080E080
:100C200008958091150B81110AC08091140B8111D8
:100C300006C08091C90A823011F00C94FF0581E052
:100C4000089580912A0B811117C08091CC0A8823C6
:100C5000B1F00E94FF05811118C08091C90A82304D
:100C600089F08091150B811110C08091140B8111B6
:100C70000CC090E080E0089582E190E0089581E169
:100C800090E0089583E190E0089586E190E0089572
:100C90000F931F93CF93DF93EC01FC01E15AFF4FB9
:100CA0002081318142815381648175818681978160
:100CB000A0E00E9453F6B9F47897CD5BDF4F81E056
:100CC0000081118122813381488159816A817B8130
:100CD000041715072607370709F480E0DF91CF9145
:100CE0001F910F91089581E0F9CF8F929F92AF925B
:100CF000BF92CF92DF92EF92FF920F931F93CF9309
:100D0000DF93EC015A016B01E884F9840A851B85A5
:100D10009A01AB01B701C8010E948AF2181684F04B
:100D200020E030E04AE754E4B501C6010E948AF2AF
:100D300075018601181624F4E12CF12C0AE714E45D
:100D40002FA538A949A95AA9B701C8010E9497EB54
:100D50004B015C018E01055A1F4FF8018082918280
:100D6000A282B382688979898A899B890E9438EB3B
:100D70006B017C01AC019B01C501B4010E948AF2A8
:100D800018162CF4F801C082D182E282F382DF913E
:100D9000CF911F910F91FF90EF90DF90CF90BF9078
:100DA000AF909F908F900895FC0175A364A3672B6B
:100DB00029F481E090E097A386A3089517A216A2D4
:100DC0000895FC0167A970AD81AD92AD08950895B5
:100DD000089580E0089589599F4FFC01808108950E
:100DE000089508950895815B9F4FFC018081918152
:100DF000089580E00895FC0167A570A981A992A9D2
:100E0000089560E070E0CB01089580E00895875A6E
:100E10009F4FFC0180819181089580E0089580E0DA
:100E2000089580E0089580E00895CF93DF93CDB7D3
:100E3000DEB7DF91CF910895FC01E559FF4F208186
:100E4000318121153105C1F0DC01A20FB31FD89605
:100E50004C91433241F42130310529F41182108242
:100E6000DC01D9961C920190F081E02DE80FF91F6A
:100E700081E090AD933209F080E008959091130ADB
:100E8000992329F081E02091120A921708F480E05A
:100E900008958F929F92AF92BF92CF92DF92EF927E
:100EA000FF920F931F93F8946091590A70915A0A18
:100EB00080915B0A90915C0A7894C090D103D090A5
:100EC000D203E090D303F090D40300914C0B109127
:100ED0004D0B20914E0B30914F0B600F711F821FF5
:100EE000931F0E9438EBA70196010E9448F06B0106
:100EF0007C01F8946091550A7091560A8091570AC6
:100F00009091580A78948090AE029090AF02A09091
:100F1000B002B090B1020091620A1091630A209170
:100F2000640A3091650A600F711F821F931F0E942F
:100F300038EBA50194010E9448F04B015C0120E0D0
:100F400030E044EB52EC0E9431EB87FD0AC020E018
:100F500030E044EB52E4C501B4010E948AF2181655
:100F600084F420E030E044E353E4C701B6010E947A
:100F700033EF20E030E044EB53E40E9432EF6B01AA
:100F80007C01C701B6011F910F91FF90EF90DF9098
:100F9000CF90BF90AF909F908F9008958F929F9227
:100FA000AF92BF92CF92DF92EF92FF92CF93DF93F7
:100FB0006B017C01EA0120E030E0A9016091480B5F
:100FC0007091490B80914A0B90914B0B0E948AF2D1
:100FD00087FD68C0A701960160E070E084E393E4B8
:100FE000229709F468C020E030E044EB53E4C701E5
:100FF000B6010E948AF2181654F420E030E044EB67
:1010000053E4C701B6010E9432EF6B017C0120E07E
:1010100030E044EB53ECC701B6010E9431EB87FF8F
:101020000AC020E030E044EB53E4C701B6010E945F
:1010300033EF6B017C018090AE029090AF02A090E4
:10104000B002B090B1022091680A3091690A4091D3
:101050006A0A50916B0AC701B6010E9432EFA501DE
:1010600094010E9497EB0E94BAF0F8946093C00A32
:101070007093C10A8093C20A9093C30A1092BC0A6B
:101080001092BD0A1092BE0A1092BF0A7894DF91A6
:10109000CF91FF90EF90DF90CF90BF90AF909F9057
:1010A0008F900895229709F09ECFA701960160E0E6
:1010B00070E084E393EC0E9432EF6B017C0193CFEC
:1010C000CF92DF92EF92FF924230510531F420E04F
:1010D00030E044E353E40E9433EFC090D103D0905A
:1010E000D203E090D303F090D40320916C0A3091A6
:1010F0006D0A40916E0A50916F0A0E9432EFA7016B
:1011000096010E9497EB0E94BAF0F8946093AC0AA3
:101110007093AD0A8093AE0A9093AF0A1092BC0A06
:101120001092BD0A1092BE0A1092BF0A7894FF90E6
:10113000EF90DF90CF9008958F929F92AF92BF92E1
:10114000CF92DF92EF92FF92CF93DF936B017C01FE
:10115000EA0120E030E0A9016091480B7091490B51
:1011600080914A0B90914B0B0E948AF287FD76C0CA
:10117000A701960160E070E084E393E4229709F40C
:1011800076C020E030E044EB53E4C701B6010E9492
:101190008AF2181654F420E030E044EB53E4C7011F
:1011A000B6010E9432EF6B017C0120E030E044EB9D
:1011B00053ECC701B6010E9431EB87FF0AC020E063
:1011C00030E044EB53E4C701B6010E9433EF6B01FA
:1011D0007C01F8946091B80A7091B90A8091BA0ABA
:1011E0009091BB0A78948090AE029090AF02A0904C
:1011F000B002B090B1020E9438EBA50194010E94A8
:1012000048F09B01AC01C701B6010E9432EF609328
:10121000680A7093690A80936A0A90936B0A209116
:10122000AE023091AF024091B0025091B1020E94E3
:1012300097EB0E94BAF06093620A7093630A8093FE
:10124000640A9093650ADF91CF91FF90EF90DF9051
:10125000CF90BF90AF909F908F900895229709F004
:1012600090CFA701960160E070E084E393EC0E94C8
:1012700032EF6B017C0185CF8F929F92AF92BF922C
:10128000CF92DF92EF92FF926B017C0142305105C9
:1012900041F420E030E044E353E40E9433EF6B017B
:1012A0007C01F8946091500B7091510B8091520B1E
:1012B0009091530B78948090D1039090D203A0909A
:1012C000D303B090D4030E9438EBA50194010E948F
:1012D00048F09B01AC01C701B6010E9432EF609358
:1012E0006C0A70936D0A80936E0A90936F0A209136
:1012F000D1033091D2034091D3035091D4030E9483
:1013000097EB0E94BAF060934C0B70934D0B809357
:101310004E0B90934F0BFF90EF90DF90CF90BF90CC
:10132000AF909F908F900895FC01EE5EFD4FE0819D
:10133000E80FF92FF11DE25FFE4F8081082E000CAF
:10134000990B009711F48FEF9FEF0895DC01AE5ECB
:10135000BD4F2C91820F911DFC01E25FFE4F8081F9
:10136000882331F02F5F2C93082E000C990B0895E1
:101370008FEFFACF9C01FC01EE5EFD4F408190E0C3
:1013800080E0E42FE80FE20FF32FF11DE25FFE4F44
:101390005081552311F00196F4CF0895CF92DF923A
:1013A000EF92FF920F931F93CF93DF934F3F51051F
:1013B000B4F46A018B01EC017B01C701801B910B26
:1013C0008C159D05BCF4F70161917F01E881F981DD
:1013D0000190F081E02DCE011995892B71F790E0F5
:1013E00080E0DF91CF911F910F91FF90EF90DF9000
:1013F000CF90089581E090E0F4CFCF92DF92EF920A
:10140000FF9269017A010E9438EBA70196010E94C0
:1014100048F06B017C0120E030E0A9010E948AF2D3
:1014200020E030E040E05FE387FD2EC0C701B60159
:101430000E9433EF0E94BAF0AB01BC011092810010
:101440001092800010926F004115510521E0620753
:101450007105FCF480918100816080938100CA0154
:101460000197909389008093880080918100886023
:101470008093810080916F00826080936F00FF9065
:10148000EF90DF90CF900895C701B6010E9432EF30
:10149000D1CFDC01CA01F3E0B595A7959795879563
:1014A000FA95D1F7009721E0A207B10534F4209115
:1014B0008100226020938100D3CFDB01CA01E6E0E6
:1014C000B595A79597958795EA95D1F7009721E06F
:1014D000A207B10534F4209181002160209381009E
:1014E000E6CFBB2777FDBA95A72F962F852F0097BC
:1014F00021E0A207B10524F4209181002460DACF15
:10150000DB01CA012AE0B595A795979587952A959D
:10151000D1F7009721E0A207B1050CF0A1CF2091EF
:101520008100216020938100E7CF90E080E0089562
:10153000FC01268137812F3F320769F0223F4FEFB0
:10154000340749F0FC0162A5822F0E9440B98BE468
:1015500090E00197F1F70895FC01268137812F3F34
:10156000320769F0223F4FEF340749F0FC0164A5D0
:10157000822F0E9440B98BE490E00197F1F7089523
:10158000CF938091CC0A811114C060E086E20E9462
:1015900040B9C1E0C093CC0A60E088E30E9440B942
:1015A000C093CB0A65E070E080E090E0CF910C94AE
:1015B000F5BECF910895CF93DF93EC018E819F818B
:1015C0008F3F980729F0823F2FEF920709F04111D2
:1015D00060E068A7FE01E058FF4F4083611102C040
:1015E000442341F061E00E9441BACE010E94980A72
:1015F00081E08EA7DF91CF910895CF93DF93EC0127
:10160000862F90E09BA78AA7611117C081E090E028
:101610009DA78CA78E819F818F3F980759F0823FAD
:101620002FEF920739F061E00E9441BACE010E948B
:10163000AC0A1EA6DF91CF9108951DA61CA6EACF85
:10164000CF92DF92EF92FF920F931F93CF93DF938E
:1016500000D01F92CDB7DEB78C016A017B01CB01B0
:10166000BA019F7720E030E04AE754E40E948AF212
:1016700087FF1FC0F801C3AAD4AAE5AAF6AA848DE1
:10168000958DC982DA82EB82FC82BE016F5F7F4F4B
:101690000D960E944FC581E00F900F900F900F9014
:1016A000DF91CF911F910F91FF90EF90DF90CF903E
:1016B000089580E0F1CF0F931F9380915C02909189
:1016C0005D0281309105E1F41092610A0E94E0030D
:1016D0000E9427BF605F784D8F4F9F4F60935D0AD8
:1016E00070935E0A80935F0A9093600A80915C0217
:1016F00090915D02019690935D0280935C024DC0D3
:101700008230910509F04EC0F8944091AC0A509196
:10171000AD0A6091AE0A7091AF0A8091500B909122
:10172000510BA091520BB091530B481759076A0700
:101730007B07F1F44091C00A5091C10A6091C20A3E
:101740007091C30A8091B80A9091B90AA091BA0A1F
:10175000B091BB0A481759076A077B0749F4809183
:10176000B40A811105C08091C80A882309F481C098
:1017700078940E9427BF00915D0A10915E0A209123
:101780005F0A3091600A601B710B820B930B161677
:101790001706180619060CF46FC08FEF9FEF1F9104
:1017A0000F9108958330910549F5F8948091AC0A22
:1017B0009091AD0AA091AE0AB091AF0A0196A11D19
:1017C000B11D8093AC0A9093AD0AA093AE0AB0937A
:1017D000AF0A8091C00A9091C10AA091C20AB0914B
:1017E000C30A0196A11DB11D8093C00A9093C10A3E
:1017F000A093C20AB093C30A78946ACF843091054B
:1018000009F482CF8530910501F5F8948091AC0AF6
:101810009091AD0AA091AE0AB091AF0A0197A109CB
:10182000B1098093AC0A9093AD0AA093AE0AB0932D
:10183000AF0A8091C00A9091C10AA091C20AB091EA
:10184000C30A0197A109B109CFCF8630910509F4E8
:101850005BCF87309105A1F4F8948091A50A90910F
:10186000A60A892B41F48091B60A9091B70A892B78
:1018700011F478943BCF789481E08093610A36CF5D
:10188000089709F08ACF81E090E090935D02809301
:101890005C028091610A91E0892790E080CF0E94EC
:1018A00027BF64567109810991096093F309709308
:1018B000F4098093F5099093F6090895EF92FF9249
:1018C0000F931F93CF93DF93EC011F827C018BE674
:1018D000E80EF11CF701408151818E01095F1F4F15
:1018E0004530510544F044505109BE01645C7F4FBE
:1018F000C8010E9494F7F70180819181C80FD91F18
:101900001B82C801DF91CF911F910F91FF90EF9043
:1019100008958F929F92AF92BF92CF92DF92EF92F3
:10192000FF920F931F93CF93DF9300D0CDB7DEB715
:101930008C01663009F04DC0FC01E559FF4F8081F4
:101940009181892B09F047C08AE3D801D9968C93FD
:10195000D997DA966C93DA9780E5DB968C93DB97D0
:10196000DC961C9283E090E09183808363E25801CF
:10197000BBE6AB0EB11CF50180819181C19724F0CB
:1019800080E390E091838083D5018D919C911197A4
:10199000F801E80FF91F61AF01968D939C93D80170
:1019A000A80FB91FD9961C926332A9F4D801D99611
:1019B0002C9136EC320F029724F5323058F581AD78
:1019C000833209F5F50111821082D801D9961C9253
:1019D00002C0603289F480E00F900F900F90DF9189
:1019E000CF911F910F91FF90EF90DF90CF90BF901C
:1019F000AF909F908F9008956A3069F36D3059F3DE
:101A0000B6CF323038F4F80182AD833219F483ADA9
:101A10008823C1F281E02B3309F080E0D8018C9358
:101A20002B3379F5D996FD0101900020E9F7319724
:101A30007F01EA1AFB0A9FEF9E0D953098F0F8019E
:101A4000FA9621E030E080E0C92ED12C4601B3E0C7
:101A50008B1A910828153905B4F49191890F2F5FDD
:101A60003F4FF8CF8AE3F80181AF86E082AF80E391
:101A700083AF83E284AF15AE84E090E0D5018D930F
:101A80009C9381E0A9CF1F928F9381E495E09F936F
:101A90008F93CE0101969F938F930E94E2F7F801F6
:101AA000EC0DFD1D80ADD801A359BF4F8C93D8011B
:101AB000A80DB91D0F900F900F900F900F900F90E1
:101AC0009981D9968C919813CDCF9A8187A9981333
:101AD000C9CFBCEFEB0E0E0D111DF80111AED1CF29
:101AE0002F923F924F925F926F927F928F929F922E
:101AF000AF92BF92CF92DF92EF92FF920F931F931C
:101B0000CF93DF93CDB7DEB76E970FB6F894DEBFF5
:101B10000FBECDBF8F8B988F4D8F2E8F1801FB017D
:101B2000C080D180E280F38020E030E0A901C701CD
:101B3000B6010E9431EB87FF67C0F7FAF094F7F81F
:101B4000F094FDE2FE8B27E030E445E154E382E0CF
:101B50002816310421F027E830EC41E159E3C701B0
:101B6000B6010E9433EF6B017C010E9434F14B01FE
:101B70005C01AC019B01C701B6010E9432EF20E07D
:101B800030E040E752E40E9497EB6B017C010E9439
:101B900034F19B01AC01C701B6010E9432EF20E095
:101BA00030E040E752E40E9497EB2B013C0185E1D5
:101BB000E6E4F5E08E010F5F1F4FD80101900D9212
:101BC0008A95E1F792E02916310409F5C301B201C3
:101BD0000E9434F19B01AC01C301B2010E9432EFBB
:101BE00020E030E04AE754E40E9497EB698F7A8F57
:101BF0008B8F9C8FEE8DEE2361F0FE89FD3209F410
:101C0000F98381E090E015C02BE22E8B9CCF188ADF
:101C1000F1CFF80101900020E9F73197AF01401BA7
:101C2000510BBE016E5F7F4FC8010E9494F790E098
:101C300080E02D8D222329F023E3FE01E80FF91F18
:101C40002383E2E02E16310409F040C0698D7A8DBD
:101C50008B8D9C8D0E94BAF07F936F93C301B2016C
:101C60000E94BAF07F936F93C701B6010E94BAF049
:101C70007F936F93C501B4010E94BAF07F936F9375
:101C80001F930F93F88DFF932F892F930E94E2F7F4
:101C90000FB6F894DEBF0FBECDBF6E960FB6F894A8
:101CA000DEBF0FBECDBFDF91CF911F910F91FF908F
:101CB000EF90DF90CF90BF90AF909F908F907F90EC
:101CC0006F905F904F903F902F900895E1E02E1617
:101CD0003104D9F4C301B2010E94BAF07F936F932B
:101CE000C701B6010E94BAF07F936F93C501B4019A
:101CF0000E94BAF07F936F931F930F93F88DFF9319
:101D00002F892F930E94E2F7C3CF232831F68C0F3F
:101D10009D1FFC011286C701B6010E94BAF07F9395
:101D20006F93C501B4010E94BAF07F936F931F9324
:101D30000F93F88DFF932F892F930E94E2F7A8CF7E
:101D40002F923F924F925F926F927F928F929F92CB
:101D5000AF92BF92CF92DF92EF92FF920F931F93B9
:101D6000CF93DF93CDB7DEB7A2970FB6F894DEBF5F
:101D70000FBECDBF1C018A01DB018D919D910D909D
:101D8000BC91A02D8F8F98A3A9A3BAA3BC01CD01AC
:101D90009F7729ED3CEC4EE652E30230110521F02D
:101DA00027E830EC41E159E30E9433EF6B017C01FD
:101DB0000E9491F36B8F7C8F8D8F9E8F9B01AC0166
:101DC000C701B6010E9432EF20E030E040E752E464
:101DD0000E9497EB2B013C010E9434F19B01AC0166
:101DE000C301B2010E9432EF20E030E040E752E44C
:101DF0000E9497EB6B017C0186E1EDE5F5E0DE01E9
:101E0000119601900D928A95E1F70230110509F0C3
:101E10009EC0C701B6010E9434F19B01AC01C7010D
:101E2000B6010E9432EF20E030E44CE156E40E941B
:101E300097EB4B015C01188E1F8A20E030E0A9016E
:101E4000C501B4010E9431EB81111DC020E030E0DA
:101E5000A901C701B6010E9431EB811114C020E035
:101E600030E0A901C301B2010E9431EB81110BC026
:101E700020E030E0A9016B8D7C8D8D8D9E8D0E94C0
:101E800031EB882389F020E030E0A9016F8D78A143
:101E900089A19AA10E9431EB87FF06C06BE575E02E
:101EA000CE0147960E94CCF7C701B6010E94BAF056
:101EB000D62EC72EC301B2010E94BAF0762E672E2D
:101EC0006B8D7C8D8D8D9E8D0E94BAF0562E472E87
:101ED000FE0131967F01CE0147969A8F898F02309D
:101EE000110509F04EC0C501B4010E94BAF07F93FC
:101EF0006F93CF92DF926F927F924F925F929A8D03
:101F00009F93A98DAF93FF92EF923F922F920E94E1
:101F1000E2F70FB6F894DEBF0FBECDBFA2960FB6A4
:101F2000F894DEBF0FBECDBFDF91CF911F910F910F
:101F3000FF90EF90DF90CF90BF90AF909F908F90E9
:101F40007F906F905F904F903F902F900895013059
:101F5000110529F4198A812C912C54016CCF01159B
:101F60001105C9F720E030E040EC50E4C701B601AC
:101F70000E9448F06B017C018EE28C8781E38F87A1
:101F8000E9CFCF92DF926F927F924F925F92FA8D5C
:101F9000FF93898D8F93FF92EF923F922F920E9431
:101FA000E2F7B7CF2F923F924F925F926F927F925C
:101FB0008F929F92AF92BF92CF92DF92EF92FF9259
:101FC0000F931F93CF93DF9300D000D0CDB7DEB730
:101FD0001A013E832D8320E030E040E05FE30E9461
:101FE00033EF0E9434F16B017C0120E634E54CE0D4
:101FF0005AE40E948AF21816A4F522E83EEE43EE57
:1020000059E4C701B6010E9432EF20E43CEA4EE0F9
:1020100057E40E9448F00E94BAF0072E000C880B8B
:10202000990B0E9438EB4B015C0120E030E040E866
:102030005EE30E9497EB0E9434F12B013C0120E00B
:1020400030E040E85FE3C701B6010E9433EFA5012D
:1020500094010E9433EFA30192010E9432EF6B01C1
:102060007C0120E030E84EEB54E4C701B6010E9449
:1020700033EF6B017C0123E333E344EF52E40E942E
:1020800032EF20E030EA46EB53E40E9448F00E9431
:1020900034F14B015C0120E030EA46EB53E40E944E
:1020A00097EB0E9434F19B01AC01C701B6010E947D
:1020B00032EF2B013C0121E03DEC44EF51E40E9462
:1020C00048F00E9434F16B017C0121E03DEC44EFCB
:1020D00051E40E9497EB0E9434F169837A838B83E9
:1020E0009C8320E030E0A901C301B2010E9433EFDC
:1020F00029813A814B815C810E9432EF0E9434F148
:102100000E94BAF0F8017183608320E030E048E576
:1021100051E4C701B6010E9431EB20E030E040E815
:102120005FE387FD04C020E030E040E551E4C701F3
:10213000B6010E9432EF0E94BAF0ED81FE817183F8
:102140006083ED81FE8160817181072E000C880B18
:10215000990B0E9438EB20E030E040E250E40E940E
:102160008AF220E030E643E955E4181624F020E036
:1021700038E543E955E4C501B4010E9432EF0E94FD
:10218000BAF0F1017183608326960FB6F894DEBF32
:102190000FBECDBFDF91CF911F910F91FF90EF90B8
:1021A000DF90CF90BF90AF909F908F907F906F9077
:1021B0005F904F903F902F9008950F931F93CF9370
:1021C000DF93EB01DC010D900020E9F79D01215028
:1021D0003109281B390B79F12730310560F5FC01F5
:1021E00070E060E06115710531F4DC015C915B32F7
:1021F00021F15D3211F1508150535A30E0F46F5F9C
:102200007F4F3196621773076CF30E94D4EA8B01FB
:102210009C01015010482F4F3F4F011511052140DF
:10222000310548F47983688341E0842FDF91CF91B1
:102230001F910F91089540E0F8CF4423B1F3DFCF11
:10224000CF92DF92EF92FF920F931F9377FD22C000
:10225000FC01EB5AFF4FC080D180E280F3808B01FC
:10226000072E000C220B330BC016D106E206F30634
:102270008CF0369771836083FC01848D958D0A966E
:102280000E946FC581E01F910F91FF90EF90DF904A
:10229000CF90089580E0F7CF161617066CF4FC0176
:1022A000DC01A75ABF4F6D937C93848D958D429628
:1022B0000E946FC581E0089580E008950F931F93F9
:1022C000CF93DF9300D000D01F921F92CDB7DEB71F
:1022D0008C01FC01848D958DE95BFF4F408151811C
:1022E0006281738149835A836B837C83BE016F5FF4
:1022F0007F4F0E944FC5F801848D958DED5BFF4F98
:1023000040815181628173814D835E836F837887C1
:10231000BE016B5F7F4F04960E944FC5F801EF5AD4
:10232000FF4F60817181F801848D958D08960E9420
:102330006FC528960FB6F894DEBF0FBECDBFDF91F4
:10234000CF911F910F9108958F929F92AF92BF925C
:10235000CF92DF92EF92FF92CF93DF93FC0121A502
:10236000222391F0EC01C090C610D090C710E090ED
:10237000C810F090C910A7019601C701B6010E94CC
:102380009CF3882329F019A660E070E0CB014AC0D5
:102390002FA938AD49AD5AADC701B6010E9432EF41
:1023A0002BA93CA94DA95EA90E9497EB2FA538A99E
:1023B00049A95AA90E9497EB6B017C0120E030E00B
:1023C000A9010E948AF220E030E040E05FE387FD4F
:1023D00034C0C701B6010E9433EF0E94BAF0909555
:1023E0008095709561957F4F8F4F9F4F0E9438EB7E
:1023F0004B015C01C75ADF4FC880D9800D2C000CFF
:10240000EE08FF08C701B6010E9438EB9B01AC0142
:10241000C501B4010E9448F00E9497F2A7019601FD
:102420000E94BFEEDF91CF91FF90EF90DF90CF90B1
:10243000BF90AF909F908F900895C701B6010E9402
:1024400032EFCBCF8F929F92AF92BF92CF92DF921B
:10245000FF920F931F93CF93DF9300D01F92CDB7BE
:10246000DEB7FC0121A5261721F1F62E8C0166238B
:1024700089F14091C6105091C7106091C8107091B9
:10248000C91047AB50AF61AF72AF848D958D498352
:102490005A836B837C83BE016F5F7F4F44960E949B
:1024A0004FC5F801F1A6848D958D6F2D41960E9440
:1024B000EFC481E00F900F900F900F90DF91CF91BC
:1024C0001F910F91FF90DF90CF90BF90AF909F90A2
:1024D0008F9008956C01F3E4CF0ED11CF60180803B
:1024E0009180A280B3800E94A411860E971EA81E20
:1024F000B91EF60180829182A282B382D2CF60E0BF
:1025000089EB9FE00E942212E8E1F0E11082118243
:1025100012821382148215821682178289EB9FE041
:102520000E945E1160E088E39FE00E942212E7E9CA
:10253000FFE01082118212821382148215821682A9
:10254000178288E39FE00C945E112F923F924F9286
:102550005F926F927F928F929F92AF92BF92CF9233
:10256000DF92EF92FF920F931F93CF93DF93EC01D3
:10257000962E8E819F810E94E8C4882309F436C17B
:1025800088A58823D1F08EA5811117C00E9449BB70
:10259000FE01EC58FF4F0081118122813381601BC5
:1025A000710B820B930B61387649884991052CF0A9
:1025B000CE010E94980A81E08EA70E9449BB6B0160
:1025C0007C018E0108581F4FF80180819181A28102
:1025D000B381A7019601281B390B4A0B5B0BDA016B
:1025E000C901181619061A061B060CF0FFC020E0D8
:1025F00030E04AE754E46C857D858E859F850E9496
:1026000097EB0E94C1F0C60ED71EE81EF91EF80116
:10261000C082D182E282F3821E01F3E42F0E311CCC
:10262000F1014081518162817381DE01A059BF4F68
:102630000D911D912D913C91139740175107620701
:10264000730741F081E0B49680834D935D936D9361
:102650007C9313978E01095B1F4F6E01F1E5CF0E3E
:10266000D11CF60180819181092E000CAA0BBB0BB5
:10267000F8014081518162817381840F951FA61FEB
:10268000B71F5E01FBE4AF0EB11CF5014081518123
:10269000628173819E0128593F4F79018417950704
:1026A000A607B707E1F00E9427BFF7016083718397
:1026B00082839383F60180819181092E000CAA0BFD
:1026C000BB0BF8014081518162817381840F951F9A
:1026D000A61FB71FF50180839183A283B3830E9455
:1026E00027BFF701408051806280738064197509AB
:1026F00086099709693E73408105910524F0FE0122
:10270000E959FF4F1082E881F98102A4F3A5E02D79
:10271000CE011995882349F00E9427BFFE01E45994
:10272000FF4F6083718382839383911015C00E9451
:1027300027BFFE01E459FF4F80809180A280B380C3
:10274000681979098A099B09613E7349844091059A
:102750001CF0CE010E945E11F80140805180628021
:102760007380F10180809180A280B380CE010E94AD
:10277000A411860E971EA81EB91E9E012D5A3F4F0A
:102780007901481459046A047B0474F4F801408107
:10279000518162817381888D998DAA8DBB8D481777
:1027A00059076A077B07ACF1F70180819181019796
:1027B00081F1F8014080518062807380F101808056
:1027C0009180A280B380CE010E94A411860E971E34
:1027D000A81EB91E84149504A604B7040CF469C09D
:1027E000F70180819181019609F472C0DF91CF9148
:1027F0001F910F91FF90EF90DF90CF90BF90AF901F
:102800009F908F907F906F905F904F903F902F9010
:10281000089588A5882359F08EA5882341F0CE011C
:102820000E94AC0A1EA68FE090E00197F1F760E0ED
:102830008A810E9440B99FE0A92EB12CC501019761
:10284000F1F76EA18C810E9440B9C5010197F1F7A3
:1028500061E08A810E9440B9F60180819181FE0188
:10286000E15BFF4F208131818217930794F4019639
:10287000F6019183808381E090E0F701918380836A
:102880000E9449BBCC58DF4F688379838A839B833E
:10289000ADCFF80180819181A281B3810196A11D04
:1028A000B11D80839183A283B383F70111821082CB
:1028B000E7CFF80140815181628173818C899D89C4
:1028C000AE89BF8984179507A607B7070CF088CF94
:1028D00088A5882359F08EA5882341F0CE010E9457
:1028E000AC0A1EA68FE090E00197F1F760E08A81C4
:1028F0000E9440B98FE0A82EB12CC5010197F1F7D5
:102900006CA18C810E9440B9C5010197F1F761E08B
:102910008A810E9440B9F6018081918118161906BA
:1029200034F40197918380838FEF9FEFA6CFF80156
:1029300080819181A281B3810197A109B109B1CFB1
:10294000AF92BF92CF92DF92EF92FF920F931F93BD
:10295000CF93DF93EC018E819F810E94E8C488238E
:1029600009F457C0FE01E15AFF4F2FADDE01DF969B
:1029700011963C91119712964C91129713965C9177
:10298000139714966C91149715967C91159716963B
:102990008C91169717969C911797A080B180C28052
:1029A000D380E480F580068117810E9441F68B0177
:1029B0002FAF11963C93119712964C931297139642
:1029C0005C93139714966C93149715961C93159714
:1029D00016968C93169717969C93AB01BC018C8925
:1029E0009D89AE89BF89481759076A077B074CF054
:1029F000888D998DAA8DBB8D84179507A607B7077B
:102A000044F410821182128213821482158216827B
:102A10001782DF91CF911F910F91FF90EF90DF9080
:102A2000CF90BF90AF900895CF92DF92EF92FF9238
:102A3000CF93DF93EC016A017B018E819F810E941D
:102A4000E8C4882309F441C0FE01E058FF4F8081AB
:102A5000882339F08EA5882321F0CE010E94AC0A8C
:102A60001EA6FE01ED5BFF4F4081518162817381A3
:102A70004C0D5D1D6E1D7F1D4083518362837383EA
:102A8000DE01DF961D921D921D921C9213978C8978
:102A90009D89AE89BF89481759076A077B0724F4C7
:102AA00080839183A283B383888D998DAA8DBB8DFA
:102AB000408151816281738184179507A607B7070A
:102AC00024F480839183A283B383DF91CF91FF901D
:102AD000EF90DF90CF900895CF92DF92EF92FF9228
:102AE0001F93CF93DF93EC016A017B018E819F815D
:102AF0000E94E8C4182F8823C9F1FE01E058FF4F57
:102B00008081882339F08EA5882321F0CE010E9490
:102B1000AC0A1EA6FE01ED5BFF4FC082D182E282AD
:102B2000F382DE01DF961D921D921D921C92139777
:102B30008C899D89AE89BF89C816D906EA06FB062D
:102B400024F480839183A283B383888D998DAA8D89
:102B5000BB8D408151816281738184179507A607DF
:102B6000B70724F480839183A283B383812FDF91FD
:102B7000CF911F91FF90EF90DF90CF900895CF926B
:102B8000DF92EF92FF920F93CF93DF93EC018E8150
:102B90009F810E94E8C48823E1F1FE01E058FF4FC5
:102BA0008081882339F08EA5882321F0CE010E94F0
:102BB000AC0A1EA6FE01E55AFF4F60817181828139
:102BC0009381905820E030E048EC52E40E9448F0B5
:102BD00020E030E040E05BE40E9497EB0E94BAF016
:102BE0006B017C01FF0CCC08DC2C76019B01AC0155
:102BF0006C2D7C2D8C2D9C2D09E00E940BF6C15A6A
:102C0000DF4F288339834A835B836C837D838E8384
:102C10009F83DF91CF910F91FF90EF90DF90CF9046
:102C20000895CF92DF92EF92FF920F93CF93DF93AD
:102C3000EC018E819F810E94E8C48823D9F1FE01B6
:102C4000E058FF4F8081882339F08EA5882321F03A
:102C5000CE010E94AC0A1EA6FE01E55AFF4F20E0FD
:102C600030E048EC52E460817181828193810E945E
:102C700048F020E030E040E05BE40E9497EB0E94E7
:102C8000BAF06B017C01FF0CCC08DC2C76019B01B7
:102C9000AC016C2D7C2D8C2D9C2D09E00E940BF637
:102CA000C15ADF4F288339834A835B836C837D83DA
:102CB0008E839F83DF91CF910F91FF90EF90DF90F4
:102CC000CF900895FC01039622AD33AD3483238366
:102CD00015822481233209F4148208952F923F92A1
:102CE0004F925F926F927F928F929F92AF92BF921C
:102CF000CF92DF92EF92FF920F931F93CF93DF93C8
:102D000000D000D000D01F92CDB7DEB79A87898758
:102D1000845F9E4F9A838983DC01EC9129853A85F3
:102D20002E0F311DF90174840E9449BB00911D07CB
:102D300010911E0720911F0730912007601B710B17
:102D4000820B930B6031774281059105DCF4312CC5
:102D5000832D2A960FB6F894DEBF0FBECDBFDF914C
:102D6000CF911F910F91FF90EF90DF90CF90BF9088
:102D7000AF909F908F907F906F905F904F903F901B
:102D80002F90089509851A85015F1D4FD8011C9267
:102D9000A984BA84B0EFAB1ABDEFBB0AF50110826B
:102DA000E984FA84FFEEEF1AFDEFFF0AD7011C92C7
:102DB00060E088E20E9440B960E08AE20E9440B987
:102DC0008BE490E00197F1F761E088E20E9440B95E
:102DD0000E9424B0892B19F081E0F80180838BE4F4
:102DE00090E00197F1F7D8018C91882359F00E9467
:102DF00049BB60931D0770931E0780931F07909334
:102E00002007A5CF312C212C1B8227E0822E912C6C
:102E1000E72DF0E0F887EF833BE4C32ED12C412C63
:102E2000512C320143946F817885082C02C075952E
:102E300067950A94E2F7F62FF170FC832B812F0F30
:102E40002B8360E088E20E9440B96C818AE20E9494
:102E500040B9C6010197F1F761E088E20E9440B9EC
:102E60000E9424B0280EB301A201082C04C0440F14
:102E7000551F661F771F0A94D2F7882309F4AAC04A
:102E8000342AC6010197F1F731E0831A910858F608
:102E900060E088E20E9440B96B8161708AE20E9422
:102EA00040B9C6010197F1F761E088E20E9440B99C
:102EB0000E9424B0A22DA170AD831E82ED81FE81FF
:102EC000E817F90719F081E0D7018C939BE4892E6C
:102ED000912CC4010197F1F760E088E20E9440B9AB
:102EE000F70160818AE20E9440B9C4010197F1F7BD
:102EF00061E088E20E9440B90E9424B0019719F471
:102F000081E0D5018C938BE4882E912CC40101972C
:102F1000F1F760E088E20E9440B960E08AE20E9436
:102F200040B9C4010197F1F761E088E20E9440B91D
:102F30000E9424B0892B19F081E0F80180838BE492
:102F400090E00197F1F70E9449BB60931D077093D1
:102F50001E0780931F0790932007D8018C91F501DD
:102F60008081D7018C91F80180818111F0CED5014B
:102F70008C9181110EC0A981BA81EC9129853A8585
:102F80002E0F311DF9018485882319F08C918F5FF4
:102F90008C93D7018C918111DACEBFE1B3150CF07F
:102FA000D7CEA985BA85A25FBD4FEC9129853A8518
:102FB0002E0F311DF901E25FFE4F30828C918F5F41
:102FC0008C938C91A985BA85A80FB11DA25FBE4FC5
:102FD0001C92BDCE4095342254CF8F929F92AF92D7
:102FE000BF92CF92DF92EF92FF920F931F93CF93F6
:102FF000DF93EC010E9427BF6B017C018E01045F0F
:103000001E4FCE010E946E16D801EC91EC0FFD2FE1
:10301000F11D84858111F5CF0E9427BF6C197D09B0
:103020008E099F098C809D80AE80BF8068157905D0
:103030008A059B0530F3DF91CF911F910F91FF908F
:10304000EF90DF90CF90BF90AF909F908F900895BA
:103050004F925F926F927F928F929F92AF92BF92A8
:10306000EF92FF920F931F93CF93DF93EC01F62E15
:103070000E9427BF4B015C01FE01E45FFE4FE08030
:10308000EA948E01035F1E4FD8018C918E1115C0FA
:10309000CE010E946E160E9427BF681979098A091D
:1030A0009B094C805D806E807F80461657066806BF
:1030B000790650F790E080E00EC0EC91EC0FFD2F08
:1030C000F11DF4868C918F5F8C938C91C80FD11D6C
:1030D0001C8681E090E0DF91CF911F910F91FF90CE
:1030E000EF90BF90AF909F908F907F906F905F9088
:1030F0004F90089578941F920F920FB60F9211245B
:103100000BB60F924F925F926F927F928F929F9227
:10311000AF92BF92CF92DF92EF92FF922F933F93A5
:103120004F935F936F937F938F939F93AF93BF93CF
:10313000EF93FF938091C90A823071F08091A40AC5
:103140008F5F8093A40A8091A40A63E00E94A0F498
:103150009111BEC51092A40A8091260B9091270B65
:10316000A091280BB091290B0196A11DB11D809350
:10317000260B9093270BA093280BB093290B8091DB
:10318000A20A9091A30A181619069CF48091A20A2B
:103190009091A30A01979093A30A8093A20A809129
:1031A000A20A9091A30A892B21F460E084E00E9496
:1031B00040B98091C90A823009F431C48091150B5D
:1031C000882309F441C060919E0A70919F0A809102
:1031D000A00A9091A10A9F7720E030E040E251E4FC
:1031E0000E9431EB87FF39C060919A0A70919B0A67
:1031F00080919C0A90919D0A9F7720E030E040E208
:1032000051E40E9431EB87FF28C080919E0A909183
:103210009F0AA091A00AB091A10A80939A0A909364
:103220009B0AA0939C0AB0939D0A8091150B82364D
:1032300009F0ADC01092150B10929E0A10929F0AD1
:103240001092A00A1092A10A10929A0A10929B0A58
:1032500010929C0A10929D0A9AC08091B40A811122
:1032600096C00E94BC0360919A0A70919B0A80915B
:103270009C0A90919D0A9F772091960A3091970A17
:103280004091980A5091990A0E9448F00E9428F3B0
:103290009B01AC016AE979E989E99FE30E9432EF79
:1032A0004B015C012DEC3CEC4CE45EE30E9431EB05
:1032B00087FD76C12AE939E949E95FE3C501B4012F
:1032C0000E948AF218163CF4BAE98B2EB9E99B2EBB
:1032D000A92CBFE3BB2E9091150B8091950A9817EE
:1032E00039F08091950A882319F089E18093940A36
:1032F0008091150B8093950AC0909E0AD0909F0AEA
:10330000E090A00AF090A10A8091150B823619F482
:10331000C12CD12C76018091940A882309F449C1EB
:103320008091940A81508093940A8091150B823683
:1033300071F560919A0A70919B0A80919C0A909114
:103340009D0A9F772FE632E143E85AE30E9431EB72
:1033500087FF1DC01092150B1092950A10929E0ABD
:1033600010929F0A1092A00A1092A10A10929A0A33
:1033700010929B0A10929C0A10929D0A1092940A35
:103380008091710A811103C081E08093710A60917C
:103390009A0A70919B0A80919C0A90919D0A2091B3
:1033A0008C0A30918D0A40918E0A50918F0AC090FC
:1033B0007302D0907402E0907502F09076020E9441
:1033C00033EFA70196010E9433EF6B017C012CEAD9
:1033D00035EC47E257EB0E9431EB87FF83C1E8945D
:1033E000F7F8F8948FEF9FEFDC018093B00A909389
:1033F000B10AA093B20AB093B30A78946091430BD8
:103400007091440B8091450B9091460B0E9438EBD4
:10341000A70196010E9448F020E030E0A9010E9437
:103420008AF287FD80C16091430B7091440B8091BB
:10343000450B9091460B0E9438EBA70196010E9424
:1034400048F020E030E040E05FE30E9433EF0E946C
:10345000BAF00E9438EB6B017C0120EB35E94FEFAD
:103460005EE49F770E948AF2181654F5F894109241
:10347000B00A1092B10A1092B20A1092B30A78946C
:103480008091430B9091440BA091450BB091460B5A
:10349000B7FD5EC16091430B7091440B8091450B69
:1034A0009091460B0E9438EB20E030E040E05FE373
:1034B0000E9433EF0E94BAF00E9438EB6B017C014E
:1034C000C701B6010E94BAF0C090880AD090890A5C
:1034D000E0908A0AF0908B0A6C157D058E059F0599
:1034E00081F060933F0B7093400B8093410B90935E
:1034F000420B6093880A7093890A80938A0A90939A
:103500008B0A8091140B882309F441C06091840ACE
:103510007091850A8091860A9091870A9F7720E0B2
:1035200030E040E251E40E9431EB87FF22C160911C
:10353000800A7091810A8091820A9091830A9F7714
:1035400020E030E040E251E40E9431EB87FF11C1FE
:103550008091840A9091850AA091860AB091870A89
:103560008093800A9093810AA093820AB093830A81
:103570008091140B823609F096C11092140B1092B0
:10358000840A1092850A1092860A1092870A109275
:10359000800A1092810A1092820A1092830A83C1D3
:1035A000ADEC8A2EACEC9A2EACE4AA2EAEE3BA2E89
:1035B00092CE60919A0A70919B0A80919C0A909198
:1035C0009D0AA70196010E948AF218160CF03EC0CF
:1035D00040909A0A50909B0A60909C0A70909D0AB5
:1035E00020E030E048EC52E46091900A7091910A3A
:1035F0008091920A9091930A0E9448F0A50194014B
:103600000E9497EB9B01AC01C301B2010E9432EF13
:1036100060939A0A70939B0A80939C0A90939D0AE8
:1036200020919A0A30919B0A40919C0A50919D0AE0
:10363000C701B6010E948AF2181644F4C0929A0A91
:10364000D0929B0AE0929C0AF0929D0A20919A0ADD
:1036500030919B0A40919C0A50919D0AC701B60186
:103660000E948AF218160CF060CE40909A0A509090
:103670009B0A60909C0A70909D0A20E030E048EC24
:1036800052E46091900A7091910A8091920A90910F
:10369000930A0E9448F0A50194010E9497EBA301B0
:1036A00092010E9433EF60939A0A70939B0A809371
:1036B0009C0A90939D0A20919A0A30919B0A40910E
:1036C0009C0A50919D0AC701B6010E9431EB87FF09
:1036D0002CCEC0929A0AD0929B0AE0929C0AF09259
:1036E0009D0A23CE2CEA35EC47E257E3C701B60129
:1036F0000E948AF2181634F4F89481E090E0A0E079
:10370000B0E073CEF8941092B00A1092B10A109201
:10371000B20A1092B30A7894C12CD12CF0E8EF2EA3
:10372000FFE3FF2E6BCE6091430B7091440B8091B1
:10373000450B9091460B0E9438EBA70196010E9421
:1037400048F020E030E040E05FE30E9432EF7FCEBF
:103750006091430B7091440B8091450B9091460B07
:103760000E9438EB20E030E040E05FE30E9432EF5F
:10377000A1CE8091C80A811196C00E94B6036091C3
:10378000800A7091810A8091820A9091830A9F77C2
:103790002091960A3091970A4091980A5091990A7F
:1037A0000E9448F00E9428F39B01AC016AE979E984
:1037B00089E99FE30E9432EF4B015C012DEC3CEC68
:1037C0004CE45EE30E9431EB87FDA1C22AE939E9AE
:1037D00049E95FE3C501B4010E948AF218163CF47E
:1037E000EAE98E2EE9E99E2EA92CEFE3BE2E9091F8
:1037F000140B80917F0A981739F080917F0A8823F3
:1038000019F089E180937E0A8091140B80937F0ADE
:10381000C090840AD090850AE090860AF090870ACA
:103820008091140B823619F4C12CD12C7601809131
:103830007E0A882309F474C280917E0A81508093A5
:103840007E0A8091140B823671F56091800A709126
:10385000810A8091820A9091830A9F772FE632E154
:1038600043E85AE30E9431EB87FF1DC01092140B0E
:1038700010927F0A1092840A1092850A1092860A8A
:103880001092870A1092800A1092810A1092820A7E
:103890001092830A10927E0A8091700A811103C0EF
:1038A00081E08093700A6091800A7091810A809112
:1038B000820A9091830A20916F02309170024091A8
:1038C0007102509172020E9433EF6B017C0127E17B
:1038D00037EB41ED58EB0E9431EB87FFBAC2E89419
:1038E000F7F8F8948FEF9FEFDC018093C40A909370
:1038F000C50AA093C60AB093C70A78946091430B97
:103900007091440B8091450B9091460B0E9438EBCF
:10391000A70196010E9448F020E030E0A9010E9432
:103920008AF287FDB7C26091430B7091440B80917E
:10393000450B9091460B0E9438EBA70196010E941F
:1039400048F020E030E040E05FE30E9433EF0E9467
:10395000BAF00E9438EB6B017C0120912F0B309163
:10396000300B4091310B5091320B60EB75E98FEFCA
:103970009EE40E9448F09B01AC01C701B6019F770D
:103980000E948AF2181654F5F8941092C40A109204
:10399000C50A1092C60A1092C70A78948091430B08
:1039A0009091440BA091450BB091460BB7FD87C297
:1039B0006091430B7091440B8091450B9091460BA5
:1039C0000E9438EB20E030E040E05FE30E9433EFFC
:1039D0000E94BAF00E9438EB6B017C01C701B6016E
:1039E0000E94BAF0C0907A0AD0907B0AE0907C0ADC
:1039F000F0907D0A6C157D058E059F0581F0609322
:103A00003B0B70933C0B80933D0B90933E0B60936C
:103A10007A0A70937B0A80937C0A90937D0A809146
:103A20003F0B9091400BA091410BB091420B8093C2
:103A30006B0290936C02A0936D02B0936E02809122
:103A4000130B882309F44CC260913B0B70913C0B23
:103A500080913D0B90913E0BC0902F0BD090300B7E
:103A6000E090310BF090320B0E9438EBA7019601E9
:103A70000E9497EB0E94BAF060936702709368020D
:103A80008093690290936A028091B40A882381F03E
:103A90008091330B9091340BA091350BB091360B84
:103AA00080936B0290936C02A0936D02B0936E02B0
:103AB0008091C80A882381F080912B0B90912C0B68
:103AC000A0912D0BB0912E0B80936702909368020A
:103AD000A0936902B0936A0240916B0250916C020C
:103AE00060916D0270916E028091760A9091770AD2
:103AF000A091780AB091790A481759076A077B079D
:103B000009F468C060916B0270916C0280916D0243
:103B100090916E02C0906302D0906402E0906502C2
:103B2000F09066020E9438EBA70196010E9448F0CF
:103B30000E94BAF0603171058105910524F460E1BD
:103B400070E080E090E0613028ED72072AEC820797
:103B50002FE7920724F060E078ED8AEC9FE76B0195
:103B60007C0143E1F594E794D794C7944A95D1F743
:103B70002FEFC21AD20AE20AF20A53E0959587950E
:103B8000779567955A95D1F7A70196010E94CFEED8
:103B90002150310941095109F89420937A02309358
:103BA0007B0240937C0250937D02D0927F02C092B0
:103BB0007E02789480916B0290916C02A0916D02CC
:103BC000B0916E028093760A9093770AA093780A58
:103BD000B093790A4091670250916802609169023E
:103BE00070916A028091720A9091730AA091740A8E
:103BF000B091750A481759076A077B0709F468C02E
:103C000060916702709168028091690290916A02E6
:103C1000C0906302D0906402E0906502F09066026A
:103C20000E9438EBA70196010E9448F00E94BAF06A
:103C3000603171058105910524F460E170E080E058
:103C400090E0613028ED72072AEC82072FE7920797
:103C500024F060E078ED8AEC9FE76B017C0123E1C2
:103C6000F594E794D794C7942A95D1F72FEFC21A09
:103C7000D20AE20AF20A33E095958795779567951F
:103C80003A95D1F7A70196010E94CFEE2150310954
:103C900041095109F894209385023093860240939C
:103CA000870250938802D0928A02C0928902789447
:103CB0008091670290916802A0916902B0916A02B6
:103CC0008093720A9093730AA093740AB093750A52
:103CD000FF91EF91BF91AF919F918F917F916F91E4
:103CE0005F914F913F912F91FF90EF90DF90CF9098
:103CF000BF90AF909F908F907F906F905F904F900C
:103D00000F900BBE0F900FBE0F901F9018957DEC7B
:103D1000872E7CEC972E7CE4A72E7EE3B72E67CD12
:103D20006091800A7091810A8091820A9091830A41
:103D3000A70196010E948AF218160CF03EC040902E
:103D4000800A5090810A6090820A7090830A20E075
:103D500030E048EC52E46091900A7091910A8091B1
:103D6000920A9091930A0E9448F0A50194010E9442
:103D700097EB9B01AC01C301B2010E9432EF60934B
:103D8000800A7093810A8093820A9093830A20911B
:103D9000800A3091810A4091820A5091830AC701BA
:103DA000B6010E948AF2181644F4C092800AD0929A
:103DB000810AE092820AF092830A2091800A30916F
:103DC000810A4091820A5091830AC701B6010E947C
:103DD0008AF218160CF035CD4090800A5090810A76
:103DE0006090820A7090830A20E030E048EC52E450
:103DF0006091900A7091910A8091920A9091930A31
:103E00000E9448F0A50194010E9497EBA301920142
:103E10000E9433EF6093800A7093810A8093820A34
:103E20009093830A2091800A3091810A4091820AFE
:103E30005091830AC701B6010E9431EB87FF01CD83
:103E4000C092800AD092810AE092820AF092830A9C
:103E5000F8CC27E137EB41ED58E3C701B6010E94EA
:103E60008AF2181634F4F89481E090E0A0E0B0E013
:103E70003CCDF8941092C40A1092C50A1092C60A5A
:103E80001092C70A7894C12CD12C60E8E62E6FE31B
:103E9000F62E34CD6091430B7091440B8091450B0D
:103EA0009091460B0E9438EBA70196010E9448F0C2
:103EB00020E030E040E05FE30E9432EF48CD6091C7
:103EC000430B7091440B8091450B9091460B0E94DF
:103ED00038EB20E030E040E05FE30E9432EF78CD45
:103EE00080913B0B90913C0BA0913D0BB0913E0B10
:103EF0008093670290936802A0936902B0936A026C
:103F0000C3CDCF92DF92EF92FF922091C90AC09069
:103F10006302D0906402E0906502F0906602223065
:103F200009F524E630E040E050E00E94F1EECA01DD
:103F3000B901A70196010E94FD091092760A10921C
:103F4000770A1092780A1092790A1092720A1092E7
:103F5000730A1092740A1092750AFF90EF90DF9026
:103F6000CF9008952CE231E040E050E0DECF0E9497
:103F7000C00A8091710A81113AC081E08093710A70
:103F80008093B50A81E090E0909379028093780263
:103F90008091120B83FD75C061E087E10E9441BAF8
:103FA0006091120B617087E10E9440B98091120B01
:103FB00084FD6CC061E089E10E9441BA6091120BFE
:103FC0006695617089E10E9440B98091120B85FD70
:103FD00062C061E08BE10E9441BA6091120B62FB0A
:103FE000662760F98BE10E9440B91092B50A809172
:103FF000700A81113AC081E08093700A8093CA0AE6
:1040000081E090E090938402809383028091110B71
:1040100083FD46C061E08FE10E9441BA6091110BBF
:1040200061708FE10E9440B98091110B84FD3DC009
:1040300061E081E20E9441BA6091110B6695617066
:1040400081E20E9440B98091110B85FD33C061E08F
:1040500083E20E9441BA6091110B62FB662760F90E
:1040600083E20E9440B91092CA0A61E070E080E0E9
:1040700090E00E94F5BE8091CC0A882301F10C9457
:10408000D6C460E087E10E9441BA90CF60E089E148
:104090000E9441BA9ACF60E08BE10E9441BAA5CF5D
:1040A00060E08FE10E9441BABFCF60E081E20E94F0
:1040B00041BAC9CF60E083E20E9441BAD4CF0895EB
:1040C0000F931F93CF93DF93CDB7DEB7A8970FB6AB
:1040D000F894DEBF0FBECDBF0CE51BE0F801808178
:1040E0009181A281B38189839A83AB83BC83BE0112
:1040F0006F5F7F4F8EE190E00E944FC5F801848191
:104100009581A681B7818D839E83AF83B887BE01D9
:104110006B5F7F4F82E290E00E944FC5F801808D77
:10412000918DA28DB38D89879A87AB87BC87BE019D
:10413000675F7F4F8AE190E00E944FC5F801848D50
:10414000958DA68DB78D8D879E87AF87B88BBE0165
:10415000635F7F4F82E490E00E944FC5F801808941
:104160009189A289B389898B9A8BAB8BBC8BBE0159
:104170006F5E7F4F8AE290E00E944FC5F80184890C
:104180009589A689B7898D8B9E8BAF8BB88FBE0121
:104190006B5E7F4F8EE290E00E944FC5F8018085F4
:1041A0009185A285B385898F9A8FAB8FBC8FBE0115
:1041B000675E7F4F82E390E00E944FC5F8018485DF
:1041C0009585A685B7858D8F9E8FAF8FB8A3BE01CD
:1041D000635E7F4F86E390E00E944FC580916C0A3A
:1041E00090916D0AA0916E0AB0916F0A89A39AA36B
:1041F000ABA3BCA3BE016F5D7F4F8AE390E00E943A
:104200004FC58091680A9091690AA0916A0AB0919D
:104210006B0A8DA39EA3AFA3B8A7BE016B5D7F4FB2
:104220008EE390E00E944FC581E0A8960FB6F89407
:10423000DEBF0FBECDBFDF91CF911F910F910895CB
:10424000CF92DF92EF92FF9220912F0B3091300BA3
:104250004091310B5091320B60E070E080E492E4C9
:104260000E9448F020E030E040E452E40E9433EF46
:1042700020E030E040E05FE30E9497EB6B017C01BF
:1042800020E030E040E85EE30E9431EB87FF06C0AB
:10429000C12CD12C80E8E82E8EE3F82E20E030E00F
:1042A00040E851E4C701B6010E9497EB6B017C0125
:1042B00020E030E0A9010E948AF220E030E040E0F6
:1042C0005FE387FD0BC0C701B6010E9433EF0E9478
:1042D000BAF0FF90EF90DF90CF900895C701B6013C
:1042E0000E9432EFF4CF1092590A10925A0A10929B
:1042F0005B0A10925C0A1092550A1092560A1092AC
:10430000570A1092580AF894E8EAFAE014821582E3
:104310001682178210821182128213821092500B21
:104320001092510B1092520B1092530B1092A60A3E
:104330001092A50AECEBFAE014821582168217821D
:1043400010821182128213821092B80A1092B90A56
:104350001092BA0A1092BB0A1092B70A1092B60ACB
:10436000789441E050E060E070E084EB92E40E94D9
:104370003C09609158027091590280915A029091C3
:104380005B0241E050E00C949C08CF9310924D0AE0
:1043900010924E0A10924F0A1092500A1092510A2F
:1043A0001092520A1092530A1092540A1092450A1F
:1043B0001092460A1092470A1092480A1092490A2F
:1043C00010924A0A10924B0A10924C0A10923D0A1F
:1043D00010923E0A10923F0A1092400A1092410A2F
:1043E0001092420A1092430A1092440A1092350A1F
:1043F0001092360A1092370A1092380A1092390A2F
:1044000010923A0A10923B0A10923C0A10922D0A1E
:1044100010922E0A10922F0A1092300A1092310A2E
:104420001092320A1092330A1092340A1092250A1E
:104430001092260A1092270A1092280A1092290A2E
:1044400010922A0A10922B0A10922C0A1092240A17
:10445000C1E0C093770220E030E0A9016091480BF1
:104460007091490B80914A0B90914B0B0E948AF2FC
:1044700087FD07C08091D9038E3F39F4C093A70A06
:1044800006C08091D9038E3FC9F71092A70A81E038
:10449000809381029091B6029E3F09F0DEC0109297
:1044A00080021092580B1092590B10925A0B1092D6
:1044B0005B0B1092540B1092550B1092560B1092EE
:1044C000570B1092200A1092210A1092220A109281
:1044D000230A10921C0A10921D0A10921E0A1092B2
:1044E0001F0A1092140A1092150A1092160A1092BE
:1044F000170A1092180A1092190A10921A0A1092AA
:104500001B0A1092130A1092120A10926C0A10924F
:104510006D0A10926E0A10926F0A10924C0B109254
:104520004D0B10924E0B10924F0B1092680A109286
:10453000690A10926A0A10926B0A1092620A10922B
:10454000630A1092640A1092650A10928B0C109202
:104550008C0C10928D0C10928E0C10928F0C10926D
:10456000900C1092910C1092920C10925C0B109285
:104570005D0B10925E0B10925F0B1092600B10920D
:10458000610B1092620B1092630B1092640B1092ED
:10459000650B1092660B1092670B1092680B1092CD
:1045A000690B10926A0B10926B0B10926C0B1092AD
:1045B0006D0B10926E0B10926F0B1092700B10928D
:1045C000710B1092720B1092730B1092740B10926D
:1045D000750B1092760B1092770B1092780B10924D
:1045E000790B10927A0B10927B0B10928A0C82E05E
:1045F0008093DE030E949A041092110A81E0809356
:1046000062021092100A10920F0AF8941092C90ACE
:1046100010920E0A8091430B9091440BA091450B90
:10462000B091460B80933F0B9093400BA093410BAE
:10463000B093420B8091430B9091440BA091450B9A
:10464000B091460B80933B0B90933C0BA0933D0B9A
:10465000B0933E0B7894CF9108958093800221CF40
:10466000CF92DF92EF92FF921F93CF93DF939091BF
:10467000E10A992309F495C290912A0B923029F00E
:1046800090916202992309F48FC2182F0E9411069B
:1046900081118DC28091FE0A882309F48BC280911A
:1046A000FF0A882309F486C20E94C52181E0809315
:1046B000670A0E94B71F80E090E0A4E3B2E4809311
:1046C0005E0290935F02A0936002B0936102109229
:1046D000660A0E947321F894109273021092740279
:1046E000109275021092760210926F021092700270
:1046F000109271021092720278946BE070E080E088
:1047000090E00E94F5BE8AE390E00E94A9C66B018A
:104710007C0120E030E044E354EC0E9431EB87FD63
:10472000C0C120E030E044E354E4C701B6010E9478
:104730008AF218160CF4B5C1C0926C0AD0926D0AB8
:10474000E0926E0AF0926F0A6091D1037091D203E9
:104750008091D3039091D40320916C0A30916D0A1B
:1047600040916E0A50916F0A0E9497EB0E94BAF036
:1047700060934C0B70934D0B80934E0B90934F0BAB
:104780008EE390E00E94A9C66B017C0120E030E03E
:1047900044E354EC0E9431EB87FD8CC120E030E013
:1047A00044E354E4C701B6010E948AF218160CF4DF
:1047B00081C1C092680AD092690AE0926A0AF092B6
:1047C0006B0A6091AE027091AF028091B00290913D
:1047D000B1022091680A3091690A40916A0A5091A9
:1047E0006B0A0E9497EB0E94BAF06093620A709382
:1047F000630A8093640A9093650A8EE190E00E94B8
:10480000A9C66B017C0120E030E044EB53EC0E9430
:1048100031EB87FD58C120E030E044EB53E4C701A1
:10482000B6010E948AF218160CF44DC1C0925C0BBE
:10483000D0925D0BE0925E0BF0925F0B82E290E013
:104840000E94A9C66B017C0120E030E044EB53ECF0
:104850000E9431EB87FD40C120E030E044EB53E49F
:10486000C701B6010E948AF218160CF435C1C09235
:10487000600BD092610BE092620BF092630B8AE1C5
:1048800090E00E94A9C66B017C0120E030E040E28C
:1048900051EC0E9431EB87FD28C120E030E040E27E
:1048A00051E4C701B6010E948AF218160CF41DC12A
:1048B000C092740BD092750BE092760BF092770B4E
:1048C00082E490E00E94A9C66B017C0120E030E008
:1048D00040E251EC0E9431EB87FD10C120E030E056
:1048E00040E251E4C701B6010E948AF218160CF4A6
:1048F00005C1C092780BD092790BE0927A0BF092BE
:104900007B0B8AE290E00E94A9C66B017C0120E04B
:1049100030E040E251EC0E9431EB87FDF8C020E02E
:1049200030E040E251E4C701B6010E948AF2181655
:104930000CF4EDC0C0926C0BD0926D0BE0926E0B3C
:10494000F0926F0B8EE290E00E94A9C66B017C0191
:1049500020E030E040E251EC0E9431EB87FDE0C006
:1049600020E030E040E251E4C701B6010E948AF243
:1049700018160CF4D5C0C092700BD092710BE09257
:10498000720BF092730B82E390E00E94A9C66B0158
:104990007C0120E030E040E251EC0E9431EB87FDE9
:1049A000C8C020E030E040E251E4C701B6010E94F7
:1049B0008AF218160CF4BDC0C092640BD092650B3D
:1049C000E092660BF092670B86E390E00E94A9C626
:1049D0006B017C0120E030E040E251EC0E9431EBC1
:1049E00087FDB0C020E030E040E251E4C701B601ED
:1049F0000E948AF218160CF4A5C0C092680BD092DF
:104A0000690BE0926A0BF0926B0B88E090E00E94D9
:104A10007EC5833008F080E0C82FD0E090E080E0D1
:104A20000E94A9C6AE010E94600884E090E00E9446
:104A3000A9C6AE010E94CE070E94E003F8948091BF
:104A4000AC0A9091AD0AA091AE0AB091AF0A8093E2
:104A5000500B9093510BA093520BB093530B80913A
:104A6000C00A9091C10AA091C20AB091C30A809372
:104A7000B80A9093B90AA093BA0AB093BB0A789483
:104A80001092620282E08093DE03111164C090E014
:104A900080E0DF91CF911F91FF90EF90DF90CF905A
:104AA000089510926C0A10926D0A10926E0A10927C
:104AB0006F0A4ACE1092680A1092690A10926A0A26
:104AC00010926B0A7ECE10925C0B10925D0B1092CE
:104AD0005E0B10925F0BB2CE1092600B1092610BC6
:104AE0001092620B1092630BCACE1092740B10924C
:104AF000750B1092760B1092770BE2CE1092780B1A
:104B00001092790B10927A0B10927B0BFACE1092C6
:104B10006C0B10926D0B10926E0B10926F0B12CFEC
:104B20001092700B1092710B1092720B1092730B0B
:104B30002ACF1092640B1092650B1092660B1092A4
:104B4000670B42CF1092680B1092690B10926A0BA0
:104B500010926B0B5ACF10922A0B60E089E090E024
:104B60000E94EFC481E08093C90A0E94C00A86E4D3
:104B700090E00E947EC5853088F48093E30A87E444
:104B800090E00E947EC591E0811101C090E0909379
:104B9000E20A81117CCF1092E30A79CF1092E30AE6
:104BA000EECF8CE090E075CF8BE090E072CF86E1A5
:104BB00090E06FCF89E090E06CCF0E9411068111E8
:104BC00038C00E94C5210E94732180E090E0A4E3D8
:104BD000B2E480935E0290935F02A0936002B09370
:104BE00061021092660A81E08093670A0E94B71FF3
:104BF00010922A0B60E089E090E00E94EFC487E405
:104C000090E00E947EC591E0811101C090E09093F8
:104C1000E20A1092E30A60E086E490E00E94EFC4AA
:104C20008091E20A811102C01092E30A90E080E0D4
:104C3000089586E190E008958F929F92AF92BF927F
:104C4000CF92DF92EF92FF920F9320915702281795
:104C5000190609F48FC097FF809357027C0180905A
:104C6000D30A9090D40AA090D50AB090D60A20E03A
:104C700030E0A901C501B4010E9431EB882309F499
:104C800083C080920A0A90920B0AA0920C0AB092FA
:104C90000D0A8090CF0A9090D00AA090D10AB090CF
:104CA000D20A20E030E0A901C501B4010E9431EB35
:104CB000882309F483C08092060A9092070AA09282
:104CC000080AB092090A6091D1037091D2038091D1
:104CD000D3039091D403C0900A0AD0900B0AE090BD
:104CE0000C0AF0900D0A20E030E040E753E40E9407
:104CF00048F0A70196010E9497EB20E030E048ECD5
:104D000052E40E9448F020E030E040E05BE40E9482
:104D100097EB0E94BAF06B017C01FF0CCC08DC2CF5
:104D200076019B01AC016C2D7C2D8C2D9C2D09E016
:104D30000E940BF620934D0A30934E0A40934F0A7F
:104D40005093500A6093510A7093520A8093530A09
:104D50009093540A8091AE029091AF02A091B0025C
:104D6000B091B1028091060A9091070AA091080AB9
:104D7000B091090A0F91FF90EF90DF90CF90BF9014
:104D8000AF909F908F900895F701EE0FFF1FEE0FE9
:104D9000FF1FE15DFD4F20E030E040E751E460811E
:104DA0007181828193810E9448F060930A0A709316
:104DB0000B0A80930C0A90930D0A6BCFF701EE0F4C
:104DC000FF1FEE0FFF1FE15DFD4F20E030E040E7E9
:104DD00051E460817181828193810E9448F06093E7
:104DE000060A7093070A8093080A9093090A6BCF0A
:104DF0004F925F926F927F928F929F92AF92BF92EB
:104E0000CF92DF92EF92FF920E9427BFC090020ADA
:104E1000D090030AE090040AF090050A6C197D090D
:104E20008E099F090E9438EB20E030E04AE754E405
:104E30000E9448F04B015C01E091000AF091010AE8
:104E4000EE0FFF1FEE0FFF1FE15DFD4FC080D18011
:104E5000E280F38020E030E041EE54E4C701B60187
:104E60000E948AF2181634F4C12CD12C81EEE82E5F
:104E700084E4F82E20ED3FE049EC50E4C501B40194
:104E80000E9448F02EE530E243E15FE30E94CAF25F
:104E90004B015C010E9491F39B01AC01C501B4017F
:104EA0000E9432EF20ED3FE049EC50E40E9497EB86
:104EB0002B013C0120E030E040E751E4C701B6019E
:104EC0000E9448F06B017C01C301B2010E9443F0D3
:104ED0009B01AC01C701B6010E9497EB4B015C013D
:104EE0008092D30A9092D40AA092D50AB092D60AA0
:104EF000C301B2010E941AF39B01AC01C701B601C4
:104F00000E9497EB6B017C01C092CF0AD092D00A2D
:104F1000E092D10AF092D20A20E030E0A901C50166
:104F2000B4010E9431EB87FFEEC0E894B7F880929D
:104F3000D30A9092D40AA092D50AB092D60A85E6F6
:104F40008093150B20E030E0A901C701B6010E9453
:104F500031EB87FFDAC0E894F7F8C092CF0AD0921D
:104F6000D00AE092D10AF092D20A83E78093140B20
:104F70002091FC093091FD094091FE095091FF09F3
:104F80006091D30A7091D40A8091D50A9091D60A83
:104F90000E9448F04B015C018092D30A9092D40A9F
:104FA000A092D50AB092D60A2091D1033091D203B3
:104FB0004091D3035091D40360E074E284E799E414
:104FC0000E9448F020E030E041E655E40E9497EB73
:104FD00020E030E040E751E40E9448F06B017C01A2
:104FE0006091D90A7091DA0A8091DB0A9091DC0A0B
:104FF0000E9438EB20E030E040E85DE30E9497EB50
:105000009B01AC01C701B6010E9448F06B017C0115
:10501000AC019B01C501B4010E948AF2181644F448
:10502000C092D30AD092D40AE092D50AF092D60A5E
:105030008FEF9FEF0E941C268091150B853699F407
:10504000F89480910A0A90910B0AA0910C0AB091F1
:105050000D0AB05880939E0A90939F0AA093A00ACD
:10506000B093A10A78948091150B873791F4F89446
:1050700080910A0A90910B0AA0910C0AB0910D0A36
:1050800080939E0A90939F0AA093A00AB093A10ACE
:1050900078948091140B833799F4F8948091060AE0
:1050A0009091070AA091080AB091090AB05880931C
:1050B000840A9093850AA093860AB093870A78940D
:1050C0008091140B8E3691F4F8948091060A909199
:1050D000070AA091080AB091090A8093840A909364
:1050E000850AA093860AB093870A7894FF90EF9080
:1050F000DF90CF90BF90AF909F908F907F906F90F8
:105100005F904F90089587E71BCF8EE62FCF4F9289
:105110005F926F927F928F929F92AF92BF92CF9247
:10512000DF92EF92FF920F931F93CF93DF934B0188
:105130005C01C1EDD3E0488059806A807B8020E02B
:1051400030E040E85DE30E9497EB6B017C01A30136
:10515000920160E074E284E799E40E9448F020E064
:1051600030E041E655E40E9497EB20E030E040E774
:1051700051E40E9448F0A70196010E9448F020E007
:1051800030E040EE50E40E9497EB2B013C0120E020
:1051900030E040E05FE36091DD0A7091DE0A8091CB
:1051A000DF0A9091E00A0E9497EBA70196010E9406
:1051B00048F09B01AC01C301B2010E9497EB6093E0
:1051C000960A7093970A8093980A9093990A20E020
:1051D00030E040EA50E40E9448F06093900A7093F7
:1051E000910A8093920A9093930A288139814A8187
:1051F0005B8160E074E284E799E40E9448F020E07B
:1052000030E041E655E40E9497EBA70196010E9429
:1052100048F00FE212E0F80164A375A386A397A3F8
:1052200020E030E040E05FE30E9497EBF80160A3EC
:1052300071A382A393A38FEF80935702F8946881A0
:1052400079818A819B8120E030E040EA50E40E942D
:1052500097EB0E9428F3A50194010E9497EB6093BD
:10526000A5077093A6078093A7079093A80760915E
:10527000AE027091AF028091B0029091B10220E035
:1052800030E040EA50E40E9497EB0E9428F3A50129
:1052900094010E9497EB6093A1077093A2078093FB
:1052A000A3079093A407789488809980AA80BB80F4
:1052B000A701960160E074E284E799E40E9448F057
:1052C000A50194010E9448F06093F7077093F807D6
:1052D0008093F9079093FA07DF91CF911F910F9177
:1052E000FF90EF90DF90CF90BF90AF909F908F9006
:1052F0007F906F905F904F9008956093200270931D
:105300002102809322029093230220E030E040E7C4
:1053100051E40E9497EB60932402709325028093DE
:1053200026029093270210929D0710929E071092DA
:105330009F071092A00708954F925F926F927F92FD
:105340008F929F92AF92BF92CF92DF92EF92FF9295
:105350000F931F932B013C0149015A01670178010A
:10536000CA01B9010E949CF3882339F0812C90E88E
:10537000992E9CE7A92E94E4B92EA7019601C701A6
:10538000B6010E949CF3882331F0C12CD12C80E21D
:10539000E82E81E4F82E2FE135E843EA50E4C3011A
:1053A000B2010E9433EF9B01AC016DEC7CEC84E216
:1053B00091E40E9448F0A30192010E9433EF21EE94
:1053C0003EE245E652E40E9448F00E946CF32B0155
:1053D0003C0120E030E848E853E4C701B6010E94F0
:1053E00033EF9B01AC0160E070E88DE893E40E942C
:1053F00048F06B017C0120E030E84CE754E4C50143
:10540000B4010E9448F09B01AC01C701B6010E94A3
:1054100097EB6B017C01A301920160E070E080E8F2
:105420009FE30E9448F02CE53FE842E85FE30E94DA
:1054300097EB9B01AC01C701B6010E9497EB6B0192
:105440007C0120E030E0A9010E9431EB87FF03C01E
:10545000C12CD12C7601C701B6011F910F91FF908D
:10546000EF90DF90CF90BF90AF909F908F907F9004
:105470006F905F904F9008954F925F926F927F92DE
:105480008F929F92AF92BF92CF92DF92EF92FF9254
:105490000F931F93CF93DF93CDB7DEB762970FB60D
:1054A000F894DEBF0FBECDBF49015A01FA8AE98ADE
:1054B00021EE3EE245E652E40E9448F06B017C0199
:1054C00021EE3EE245E652E4C501B4010E9448F0F7
:1054D0004B015C010E9443F06D837E838F8398872C
:1054E000C701B6010E941AF369877A878B879C8768
:1054F00040909707509098076090990770909A078E
:10550000C701B6010E9443F020911C0230911D0298
:1055100040911E0250911F0229833A834B835C8382
:105520000E9497EB2D813E814F8158850E9497EB19
:105530006D877E878F87988BA301920169857A8515
:105540008B859C850E9497EB9B01AC016D857E85C8
:105550008F8598890E9433EF0E949FEFE989FA892D
:105560006083718382839383C501B4010E941AF31F
:105570004B015C01C701B6010E946CF36B017C0119
:105580002D813E814F815885C301B2010E9497EB66
:105590002B013C01A701960169817A818B819C8155
:1055A0000E9497EB9B01AC01C301B2010E9432EF54
:1055B0009B01AC01C501B4010E94CDEF21EE3EE29A
:1055C00045E652E40E9497EB20E030E044E353E4E8
:1055D0000E9433EFF801608371838283938321EE0D
:1055E0003EE245E652E4E989FA896081718182816F
:1055F00093810E9497EBE989FA89608371838283A2
:10560000938362960FB6F894DEBF0FBECDBFDF91D5
:10561000CF911F910F91FF90EF90DF90CF90BF90AF
:10562000AF909F908F907F906F905F904F90089574
:105630004F925F926F927F928F929F92AF92BF92A2
:10564000CF92DF92EF92FF920F931F93CF93DF934E
:10565000CDB7DEB762970FB6F894DEBF0FBECDBFF1
:1056600049015A01FA8AE98A21EE3EE245E652E40E
:105670000E9448F06B017C0121EE3EE245E652E4D7
:10568000C501B4010E9448F02B013C01C701B601DD
:105690000E9443F069877A878B879C87C301B20198
:1056A0000E941AF36D877E878F87988B20919707CA
:1056B000309198074091990750919A0729833A832E
:1056C0004B835C83C301B2010E9443F020911C0212
:1056D00030911D0240911E0250911F022D833E8386
:1056E0004F8358870E9497EB29853A854B855C85C7
:1056F0000E9497EB4B015C0129813A814B815C81CF
:105700006D857E858F8598890E9497EB9B01AC0102
:10571000C501B4010E9433EF0E949FEFD8016D9341
:105720007D938D939C931397C701B6010E941AF342
:105730004B015C012AED3FE049EC5FE3C301B2019C
:105740000E9432EF6B017C0120E030E0A9010E9451
:105750008AF21816C4F524E333E242E055E3C701A8
:10576000B6010E9431EB87FF38C0E989FA891082BF
:1057700011821282138221EE3EE245E652E4F801E4
:1057800060817181828193810E9497EBD8016D9332
:105790007D938D939C93139762960FB6F894DEBF1A
:1057A0000FBECDBFDF91CF911F910F91FF90EF9072
:1057B000DF90CF90BF90AF909F908F907F906F9031
:1057C0005F904F90089524E333E242E055EBC70128
:1057D000B6010E948AF2181644F22AED3FE049EC25
:1057E0005FE3C301B2010E9433EF6B017C0120E053
:1057F00030E0A9010E948AF21816ACF424E333E2E7
:1058000042E055E3C701B6010E9431EB87FF15C0A6
:1058100080E090E0A4E3B3E4E989FA89808391838E
:10582000A283B383A8CF24E333E242E055EBC70160
:10583000B6010E948AF218165CF3C301B2010E94FD
:105840006CF36B017C0129853A854B855C85698108
:105850007A818B819C810E9497EB2B013C01A701EF
:1058600096016D817E818F8198850E9497EB9B01C7
:10587000AC01C301B2010E9432EF9B01AC01C50132
:10588000B4010E94CDEF21EE3EE245E652E40E94D3
:1058900097EB20E030E044E353E40E9433EFA98922
:1058A000BA896D937D938D939C93139764CF8F9258
:1058B0009F92AF92BF92CF92DF92EF92FF92CF93DF
:1058C000DF9300D01F92CDB7DEB76093480B709383
:1058D000490B80934A0B90934B0B2091100B49E19D
:1058E000249F9001112469837A838B839C83BE015A
:1058F0006F5F7F4FC9018C599F4F0E944FC5C09069
:10590000480BD090490BE0904A0BF0904B0B21EEE6
:105910003EE245E652E4C701B6010E9448F04B0161
:105920005C010E9443F060931C0270931D028093FF
:105930001E0290931F02C501B4010E941AF36093E6
:105940009707709398078093990790939A07D701C8
:10595000C601BF778093930790939407A093950710
:10596000B093960720E030E0A901C701B6010E947C
:105970008AF287FD14C080E090E0A0E8BFE3809346
:10598000180290931902A0931A02B0931B028091FF
:10599000D9038E3FA1F481E08093A70A12C080E072
:1059A00090E0A0E8BFEB8093180290931902A093B7
:1059B0001A02B0931B028091D9038E3F61F71092B7
:1059C000A70A20E030E0A901C701B6010E9431EB2F
:1059D00087FF1BC080E090E0A4EBB2EC80935802FC
:1059E00090935902A0935A02B0935B020F900F90CC
:1059F0000F900F90DF91CF91FF90EF90DF90CF90BD
:105A0000BF90AF909F908F90089580E090E0A4EBBE
:105A1000B2E4E4CFCF92DF92EF92FF926B017C0170
:105A200020E030E040EC51EC0E9431EB87FF1BC0DE
:105A300020E030E048EC52E4C701B6010E9433EFA9
:105A40006B017C0120E030E0A9010E9431EB20E0F5
:105A500030E040E05FE387FF32C0C701B6010E943B
:105A600032EF6B017C0120E030E040EC51E4C701F3
:105A7000B6010E948AF21816DCF420E030E048EC0F
:105A800052E4C701B6010E9432EF6B017C0120E0B5
:105A900030E0A9010E9431EB20E030E040E45FE318
:105AA00087FF12C0C701B6010E9432EF6B017C0173
:105AB000C701B601FF90EF90DF90CF900895C70126
:105AC000B6010E9433EFCDCFC701B6010E9433EF7C
:105AD000EDCFF8946091260B7091270B8091280BE5
